:03000000020D8F5F
:0C0D8F00787FE4F6D8FD75814C020DD68B
:100F5A0054453A005454542E54430052483A0052CD
:100F6A0052522E5225002E004320202000252020F8
:020F7A00200055
:1008AB00120F331210497BFF7A0F795A7D01E4FF47
:1008BB00120ECB7BFF7A0F795E7D017F03120ECB7D
:1008CB007BFF7A0F79657D02E4FF120ECB7BFF7AFB
:1008DB000F79697D027F03120ECB7FD07E07120F3B
:1008EB009FE5462430FB7D017F0D120FEA12051D9B
:1008FB00E54670EDF510F519751A00751B11751C91
:10090B0001FB7A007908120E1BEF2510F5107519F3
:10091B0000751A00751B11E4F51CFB7A00790C129B
:10092B000E1BEF2510F5106006121049020B0CACD4
:10093B0008AD09EC12027F8F0B8E0A8D098C08AC67
:10094B000CAD0DEC12027F8F0F8E0E8D0D8C0C7576
:10095B001900751A00751B0C7B007A007908120BB5
:10096B00167BFF7A0F795A7D01E4FF120ECB7BFFCA
:10097B007A0F79657D02E4FF120ECB7BFF7A0F793C
:10098B00707D017F06120ECB7BFF7A0F79707D0293
:10099B007F06120ECB7BFF7A0F79727D017F0812D7
:1009AB000ECB7BFF7A0F79777D027F08120ECBE49B
:1009BB00FFFE7D207C41AB0FAA0EA90DA80C1200E7
:1009CB00FB1202B88E128F13E4FFFE7D207C41AB2D
:1009DB000FAA0EA90DA80C1200FBE4FBFAF9F812F2
:1009EB000201600640047B2D8012AF13AE12121071
:1009FB005A7C037DE81203DBEF2430FB7D017F0380
:100A0B00120FEAAF13AE1212105A7C037DE81203D9
:100A1B00DB7E007F64CFCDCFCECCCE1203DBEF24B9
:100A2B0030FB7D017F04120FEAAF13AE1212105A86
:100A3B007C007D641203DB7E007F0ACFCDCFCECC52
:100A4B00CE1203DBEF2430FB7D017F05120FEAAFE3
:100A5B0013AE1212105A7C007D0A1203DBED243008
:100A6B00FB7D017F07120FEAE4FFFE7D207C41AB8B
:100A7B000BAA0AA909A8081200FB1202B88E148F40
:100A8B00157C037DE8120386EF2430FB7D027F0388
:100A9B00120FEAAE14AF157C037DE81203867E00BD
:100AAB007F64CFCDCFCECCCE120386EF2430FB7D2F
:100ABB00027F04120FEAAE14AF157C007D641203A3
:100ACB00867E007F0ACFCDCFCECCCE120386EF240D
:100ADB0030FB7D027F05120FEAAE14AF157C007D53
:100AEB000A120386ED2430FB7D027F07120FEA7595
:100AFB001900751A00751B087B007A00790C120C13
:0B0B0B00B37F207E03120F9F0208EC56
:100F3300120F9B7F38120FB6120F9B7F0C120FB646
:100F4300120F9B7F06120FB6120F9B7F01120FB673
:070F53007F647E00020F9F86
:100FB6008F1A120F9BC2A0C2A1D2A2851A80120F4D
:0A0FC6009BC2A27F0A7E00020F9F6B
:100FD0008F1A120F9BD2A0C2A1D2A2851A80120F23
:0A0FE0009BC2A27F0A7E00020F9F51
:020FEA008B1664
:100FEC00EFBD01062480F517800424C0F517AF1758
:080FFC00120FB6AF16020FD070
:060ECB008B168A1789183E
:100ED100EFBD01062480F519800424C0F519AF196E
:100EE100120FB6AB16AA17A918120339FF60101218
:0F0EF1000FD074012518F518E43517F51780E4B4
:010F000022CE
:040F9B007F0A7E004B
:100F9F00D3EF9400EE9400400D000000000000EF2E
:060FAF001F70ED1E80EA38
:010FB5002219
:10100400D2A7C2A600D2A600C2A700C2A6000000B2
:09101400D2A600D2A700C2A62258
:10104900D2A7C2A6E4FFD2A6C2A60FBF09F8021012
:011059000492
:100F0100E4FE7D80EDD394004017ED5F6004D2A72D
:100F11008002C2A7D2A6000000C2A6EDC313FD80C5
:100F2100E3D2A7D2A6A2A7E433000000C2A6D2A7AB
:010F3100FFC0
:010F3200229C
:100E9100E4FED2A77D80EDD394004013D2A630A703
:100EA10003ED4206000000C2A6EDC313FD80E7BFBB
:100EB1000104C2A78002D2A7000000D2A600000050
:090EC100C2A6000000D2A7AF0692
:010ECA002205
:060E1B008B168A178918EE
:100E2100E4F51D121004E51C14600704700E7F0325
:100E310080027F05120F01EF251DF51D900000AF07
:100E410082AE83E4FCFD7BFF7AFFF9F8D312041F25
:100E5100400630A703A380E730A702051D7F0112DA
:100E61000E91AB16AA17A918EF1203527F01120EA9
:100E710091AB16AA17A918900001EF120364E4FFC1
:0F0E8100120E91AB19AA1AA91BEF120352AF1D43
:010E9000223F
:060B16008B168A178918F6
:100B1C00E4F51FF51E751D80751CC07523547522D8
:100B2C00E375212575203D7527A27526E775253BB4
:100B3C007524B6752B0A752AD775292375283C752B
:100B4C002FAC752EC5752DA7752C381204358F3327
:100B5C008E328D318C30AB19AA1AA91B1204358F29
:100B6C00378E368D358C347F0A7ED77D237C3CAB1B
:100B7C0037AA36A935A8341200FBE4FBFA792078A1
:100B8C00C212000A8F438E428D418C40AF33AE327D
:100B9C00AD31AC30AB27AA26A925A8241200FBAB9B
:100BAC0033AA32A931A8301200FBC004C005C0061C
:100BBC00C007AF33AE32AD31AC30AB23AA22A92182
:100BCC00A8201200FBD003D002D001D00012000AE2
:100BDC00AB1FAA1EA91DA81C12000A8F3B8E3A8DB2
:100BEC00398C38AF33AE32AD31AC30AB2FAA2EA925
:100BFC002DA82C1200FBAB2BAA2AA929A82812007D
:100C0C000AC004C005C006C007E4FFFE7DC87CC155
:100C1C00AB43AA42A941A84012000AD003D002D08B
:100C2C0001D0001200FBAB3BAA3AA939A83812003C
:100C3C000AE4FBFA794078C012000A8F3F8E3E8D91
:100C4C003D8C3CE4FFFE7DC87C42AB3FAA3EA93DF7
:100C5C00A83C120201600D400BE4F53FF53E753DDA
:100C6C00C8753C427FCD7ECC7DCC7C3DAB3FAA3E53
:100C7C00A93DA83C120201500C753FCD753ECC75B8
:100C8C003DCC753C3DAF43AE42AD41AC40AB19AA37
:100C9C001AA91B120455AF3FAE3EAD3DAC3CAB1692
:070CAC00AA17A91802045564
:10101D0054453A0052483A002D00430025006E65B4
:08102D00676100202020200073
:1010350002470014024B000A02440032024900280C
:0310450001460061
:100CB3008B168A178918AC4BAD4CEC12027FAB161E
:100CC300AA17A91812046F12020160025004C290FD
:100CD3008002D290AC47AD48EC12027FAB16AA1744
:100CE300A91812046F1202014004C2918002D2912A
:100CF300AC49AD4AEC12027FAB19AA1AA91B120424
:100D03006F12020160025004C2928002D292AC447C
:100D1300AD45EC12027FAB19AA1AA91B12046F127C
:100D230002014004C2938002D293AC4BAD4CEC124F
:100D3300027FAB16AA17A91812046F1202016046AC
:100D43004044AC47AD48EC12027FAB16AA17A91872
:100D530012046F120201502EAC49AD4AEC12027F0D
:100D6300AB19AA1AA91B12046F12020160184016CC
:100D7300AC44AD45EC12027FAB19AA1AA91B1204AD
:0C0D83006F1202014003C29422D294229D
:10051D002095727F0A7E00120F802095680546E5B2
:10052D0046B40503E4F5463095FD120F331210491C
:10053D007BFF7A10791D7D01E4FF120ECB7BFF7AD4
:10054D001079217D02E4FF120ECB7BFF7A10792505
:10055D007D017F06120ECB7BFF7A1079257D027F00
:10056D0006120ECB7BFF7A1079277D017F0A120EC2
:10057D00CB7BFF7A1079297D027F0A120ECB7F1477
:10058D007E00120F9FE5466401600302066B209604
:10059D002E7F32FE120F80054CE54C7002054BE5A7
:1005AD004824FFFFE54734FFFED3E54C9FEE648002
:1005BD00F8E54B64809840048E4B8F4C3096FD20AF
:1005CD0097277F327E00120F80D3E54C94D8E54BF0
:1005DD006480947F500885474B85484C8008E54CD6
:1005ED00154C7002154B3097FDAE4BAF4C7C007D1A
:1005FD00641203DBEF2430FB7D017F03120FEAAEA3
:10060D004BAF4C7C007D641203DB7E007F0ACFCDA7
:10061D00CFCECCCE1203DB12105AEF2430FB7D016E
:10062D007F04120FEAAE4BAF4C7C007D0A1203DB48
:10063D00AE04AF0512105AEF2430FB7D017F051279
:10064D000FEAC3E54B648094807BFF50067A1079E6
:10065D002B80047A1079307D027F0C120ECBE5468B
:10066D00640260030207392096227F96FE120F80E6
:10067D000548E54870020547D3947BE547648094AF
:10068D0080400675470075487B3096FD20972A12ED
:10069D000F7CE548154870021547E54C2401FFE431
:1006AD00354BFEC3E5489FEE6480F8E547648098BE
:1006BD0050048E478F483097FDAE47AF487C007D84
:1006CD00641203DBEF2430FB7D017F07120FEAAECE
:1006DD0047AF487C007D641203DBAE04AF051210FA
:1006ED005A7C007D0A1203DBEF2430FB7D017F086D
:1006FD00120FEAAE47AF487C007D0A1203DBAE0451
:10070D00AF0512105AEF2430FB7D017F09120FEA5D
:10071D00C3E547648094807BFF50067A10792B8067
:10072D00047A1079307D027F0C120ECBE5466403FE
:10073D0060030207E720962E7F96FE120F80054A72
:10074D00E54A70020549E54524FFFFE54434FFFE07
:10075D00D3E54A9FEE6480F8E54964809840048EA5
:10076D00498F4A3096FD209722120F7CD3E54A948B
:10077D0000E549648094805007E4F549F54A800806
:10078D00E54A154A700215493097FDAE49AF4A7CCE
:10079D00007D641203DBEF2430FB7D027F03120F1B
:1007AD00EAAE49AF4A7C007D641203DB7E007F0A0E
:1007BD00CFCDCFCECCCE1203DBEF2430FB7D027F2D
:1007CD0004120FEAAE49AF4A7C007D0A1203DBED3D
:1007DD002430FB7D027F05120FEAE54664046003B9
:1007ED000208912096227F96FE120F800545E54561
:1007FD0070020544D39463E544648094804006758B
:10080D0044007545633096FD20972A120F7CE5450F
:10081D00154570021544E54A2401FFE43549FEC330
:10082D00E5459FEE6480F8E54464809850048E445D
:10083D008F453097FDAE44AF457C007D641203DBE0
:10084D00EF2430FB7D027F07120FEAAE44AF457CEB
:10085D00007D641203DB7E007F0ACFCDCFCECCCEE0
:10086D001203DBEF2430FB7D027F08120FEAAE444A
:10087D00AF457C007D0A1203DBED2430FB7D027F4A
:10088D0009120FEA20B7167F0A7E00120F8020B7DB
:0E089D000C30B7FDE4F546120F33121049225D
:040F7C007F967E00DE
:100F80007DFAD3EF9400EE9400400FDDFE7DF9DD95
:0A0F9000FE7DFAEF1F70EB1E80E8F3
:010F9A002234
:10000300020324E86480F8E933E83360110460F004
:10001300ED33EC337009E8FCE9FDEAFEEBFF220463
:1000230060DED3EB9FEA9EE99DE8C2E78CF0C2F75E
:1000330095F0400CE8CCF8E9CDF9EACEFAEBCFFB2A
:100043001202EF85D0F05804700320D5B3E8047092
:10005300075002B2D502032E92D5EC0460F7E4CC2C
:10006300C0E0C398F8603B94186008400DD0E0FBF3
:10007300020306E4FBFAC9FC8028E830E406E4C97D
:10008300FBE4CAFCE830E305E4C9CACBFCE8540747
:100093006010F8C3E913F9EA13FAEB13FBEC13FC52
:1000A300D8F130F52FC3E49CFCEF9BFFEE9AFEEDF5
:1000B30099FDD0E0FBEF4E4D4C701222DB0302039F
:1000C3002BEC2CFCEF33FFEE33FEED33FDED30E78D
:1000D300EB020306EF2BFFEE3AFEED39FDD0E0FB1A
:1000E30050130BBB000302032EED13FDEE13FEEFC3
:0800F30013FFEC13FC020306ED
:1000FB00EC4D6011E8497017ED33EC3304600DE4FF
:10010B00FCFFFEFD22E933E8330470F802032412EE
:10011B0002EF58046009E4CC2481500628500902F0
:10012B00032E28400302032BC0E0EB4A7044B98036
:10013B0006D0E0FB02031AEF4E701CBD8008EBFFEC
:10014B00EAFEE9FD80EBE98DF0A4FEE5F00201E4A7
:10015B00E9CDF9EAFEEBFFEF89F0A4FCE5F0CE89DF
:10016B00F0A42EFFE435F0CD89F0A42DFEE435F09C
:10017B008067EF4E7005BD80D780C3EF8BF0A4ACCA
:10018B00F0EE8BF0A42CFCE435F0F8EF8AF0A42C05
:10019B00E5F038FCE433CB8DF0A42CFCE5F03BF818
:1001AB00EE8AF0A42CFCE5F038F8E433CF89F0A408
:1001BB002CFCE5F038CF3400CE89F0A42FFFE5F00E
:1001CB003EFEE433C98DF0A42EFEE5F039CD8AF066
:1001DB00A42FFFE5F03EFEE43DFD33D0E0FB5007DE
:1001EB000BBB000F02032EEC2CFCEF33FFEE33FEA8
:0601FB00ED33FD020306D6
:1002010074F8CC6480CCC86480C8F58204604FC3A4
:10021100EB9FF5F0EA9E42F0E99D42F0E89C45F043
:10022100603C501DE5825FFFE582D313CB5BCBF4CD
:100231002B5582FB50280ABA002409B900200880F6
:100241001DE5825BFBE582D313CF5FCFF4C3132F90
:100251005582FF50090EBE00050DBD00010CC3EB18
:100261009FF5F0EA9E42F0E99D42F0E89C45F0607E
:0902710007CC4820E701B3EC22A0
:10027A0075F020800E75F010800575F0087D007EFF
:10028A00007F003392D530D503120411EC334010AD
:10029A00EF33FFEE33FEED33FDEC33FCD5F0ED2208
:0E02AA00E5F0247EA2D513CC92E7CDCEFF2244
:1002B800EDD2E7CD33EC3392D524814006E4FFFE3E
:1002C800FDFC22FCE4CFCECDCC24E0501174FF809D
:1002D800EDC3CC13CCCD13CDCE13CECF13CF04703A
:0702E800F030D5DE02041125
:1002EF00E9D2E7C933E833F892D5EDD2E7CD33EC55
:0702FF0033FC5002B2D522CE
:10030600EC30E7100FBF000C0EBE00080DBD000458
:100316000BEB6014A2D5EB13FCED92E7FD2274FF04
:10032600FCFDFEFF22E480F8A2D574FF13FC7D805D
:03033600E480EF71
:100D9B000208ABE493A3F8E493A34003F68001F2BB
:100DAB0008DFF48029E493A3F85407240CC8C33359
:100DBB00C4540F4420C8834004F456800146F6DF28
:100DCB00E4800B0102040810204080901035E47E73
:100DDB00019360BCA3FF543F30E509541FFEE4931D
:100DEB00A360010ECF54C025E060A840B8E493A3E4
:100DFB00FAE493A3F8E493A3C8C582C8CAC583CA0F
:100E0B00F0A3C8C582C8CAC583CADFE9DEE780BEC6
:0110480000A7
:10033900BB010689828A83E0225002E722BBFE02C2
:09034900E32289828A83E49322F5
:10035200BB010689828A83F0225002F722BBFE018A
:02036200F32284
:10036400F8BB010DE58229F582E5833AF583E8F0CF
:10037400225006E92582C8F622BBFE05E92582C87B
:02038400F22263
:10038600BC000BBE0029EF8DF084FFADF022E4CC5B
:10039600F875F008EF2FFFEE33FEEC33FCEE9DEC24
:1003A600984005FCEE9DFE0FD5F0E9E4CEFD22ED6A
:1003B600F8F5F0EE8420D21CFEADF075F008EF2FB4
:1003C600FFED33FD4007985006D5F0F222C398FDA5
:0503D6000FD5F0EA2242
:1003DB00C2D5EC30E709B2D5E4C39DFDE49CFCEE3D
:1003EB0030E715B2D5E4C39FFFE49EFE120386C32C
:1003FB00E49DFDE49CFC800312038630D507C3E427
:06040B009FFFE49EFE22AB
:0E041100C3E49FFFE49EFEE49DFDE49CFC22FC
:10041F00EB9FF5F0EA9E42F0E99D42F0EC6480C854
:06042F0064809845F022F4
:10043500BB010789828A8302049B5005E9F80204FF
:100445008FBBFE05E9F80204A789828A830204B3FB
:10045500BB010789828A830205055005E9F8020474
:0A046500F9BBFE05E9F802051122BB
:10046F00BB010789828A830204D05005E9F8020490
:10047F00C3BBFE05E9F80204DC89828A830204E922
:0C105A00EE30E707C3E49FFFE49EFE2297
:0C048F00E6FC08E6FD08E6FE08E6FF2299
:0C049B00E0FCA3E0FDA3E0FEA3E0FF22D4
:0C04A700E2FC08E2FD08E2FE08E2FF2291
:1004B300E493FC740193FD740293FE740393FF228F
:0D04C300E6FB08E6F908E6FA08E6CBF822A9
:0C04D000E0F8A3E0F9A3E0FAA3E0FB22AF
:0D04DC00E2FB08E2F908E2FA08E2CBF822A0
:1004E900E493F8740193F9740293FA740393FB2269
:0C04F900ECF608EDF608EEF608EFF6222F
:0C050500ECF0A3EDF0A3EEF0A3EFF02269
:0C051100ECF208EDF208EEF208EFF22226
:00000001FF
