:03000000020D7A74
:0C0D7A00787FE4F6D8FD75814C020DC1B5
:100F300054453A005454542E54430052483A0052F7
:100F400052522E5225002E00432020200025202022
:0C0F500020006E6567610020202020005A
:10088700120F5C1210507BFF7A0F79307D01E4FF65
:10089700120EC87BFF7A0F79347D017F03120EC8D1
:1008A7007BFF7A0F793B7D02E4FF120EC87BFF7A4C
:1008B7000F793F7D027F03120EC87FD07E07120F8C
:1008C700A6E5462430FB7D017F0D120FF112051DB1
:1008D700E54670EDF510F519751A00751B11751CB5
:1008E70001FB7A007908120E06EF2510F51075192D
:1008F70000751A00751B11E4F51CFB7A00790C12C0
:100907000E06EF2510F5106006121050020AF7AC1C
:1009170008AD09E412027F8F0B8E0A8D098C08AC93
:100927000CAD0DE412027F8F0F8E0E8D0D8C0C75A2
:100937001900751A00751B0C7B007A007908120BD9
:10094700017BFF7A0F79307D01E4FF120EC87BFF30
:100957007A0F793B7D02E4FF120EC87BFF7A0F798D
:10096700467D017F06120EC87BFF7A0F79467D020E
:100977007F06120EC87BFF7A0F79487D017F081228
:100987000EC87BFF7A0F794D7D027F08120EC8E4EF
:10099700FFFE7D207C41AB0FAA0EA90DA80C12000B
:1009A700FB1202B88E128F13E4FFFE7D207C41AB51
:1009B7000FAA0EA90DA80C1200FBE4FBFAF9F81216
:1009C70002017BFF600840067A0F795280047A0F94
:1009D70079577D027F0C120EC8AF13AE1212106149
:1009E7007C037DE81203DBEF2430FB7D017F0312DC
:1009F7000FF1AF13AE121210617C037DE81203DB17
:100A07007E007F64CFCDCFCECCCE1203DBEF243078
:100A1700FB7D017F04120FF1AF13AE121210617C40
:100A2700007D641203DB7E007F0ACFCDCFCECCCE14
:100A37001203DBEF2430FB7D017F05120FF1AF13AB
:100A4700AE121210617C007D0A1203DBED2430FB2D
:100A57007D017F07120FF1E4FFFE7D207C41AB0B88
:100A6700AA0AA909A8081200FB1202B88E148F154A
:100A77007C037DE8120386EF2430FB7D027F03129F
:100A87000FF1AE14AF157C037DE81203867E007F5D
:100A970064CFCDCFCECCCE120386EF2430FB7D02C0
:100AA7007F04120FF1AE14AF157C007D641203862C
:100AB7007E007F0ACFCDCFCECCCE120386EF243077
:100AC700FB7D027F05120FF1AE14AF157C007D0A86
:100AD700120386ED2430FB7D027F07120FF1751993
:100AE70000751A00751B087B007A00790C120C9EA2
:0A0AF7007F207E03120FA60208C83C
:100F5C00120FA27F38120FBD120FA27F0C120FBD01
:100F6C00120FA27F06120FBD120FA27F01120FBD2E
:070F7C007F647E00020FA656
:100FBD008F1A120FA2C2A0C2A1D2A2851A80120F3F
:0A0FCD00A2C2A27F0A7E00020FA656
:100FD7008F1A120FA2D2A0C2A1D2A2851A80120F15
:0A0FE700A2C2A27F0A7E00020FA63C
:020FF1008B165D
:100FF300EFBD01062480F517800424C0F517AF1751
:08100300120FBDAF16020FD75A
:060EC8008B168A17891841
:100ECE00EFBD01062480F519800424C0F519AF1971
:100EDE00120FBDAB16AA17A918120339FF60101214
:0F0EEE000FD774012518F518E43517F51780E4B0
:010EFD0022D2
:040FA2007F0A7E0044
:100FA600D3EF9400EE9400400D000000000000EF27
:060FB6001F70ED1E80EA31
:010FBC002212
:10100B00D2A7C2A600D2A600C2A700C2A6000000AB
:09101B00D2A600D2A700C2A62251
:10105000D2A7C2A6E4FFD2A6C2A60FBF09F802100B
:011060000B84
:100EFE00E4FE7D80EDD394004017ED5F6004D2A731
:100F0E008002C2A7D2A6000000C2A6EDC313FD80C8
:100F1E00E3D2A7D2A6A2A7E433000000C2A6D2A7AE
:010F2E00FFC3
:010F2F00229F
:100E8E00E4FED2A77D80EDD394004013D2A630A706
:100E9E0003ED4206000000C2A6EDC313FD80E7BFBE
:100EAE000104C2A78002D2A7000000D2A600000053
:090EBE00C2A6000000D2A7AF0695
:010EC7002208
:060E06008B168A17891803
:100E0C00E4F51DF51E12100BE51C14600704701898
:100E1C007F0380027F05120EFEEF3395E0FEEF2577
:100E2C001EF51EEE351DF51D900000AF82AE83E45D
:100E3C00FCFD7BFF7AFFF9F8D312041F400630A7A4
:100E4C0003A380E730A708051EE51E7002051D7F71
:100E5C0001120E8EAB16AA17A918EF1203527F01BE
:100E6C00120E8EAB16AA17A918900001EF1203648C
:100E7C00E4FF120E8EAB19AA1AA91BEF120352AF84
:010E8C001E47
:010E8D002242
:060B01008B168A1789180B
:100B0700E4F51FF51E751D80751CC07523547522ED
:100B1700E375212575203D7527A27526E775253BC9
:100B27007524B6752B0A752AD775292375283C7540
:100B37002FAC752EC5752DA7752C381204358F333C
:100B47008E328D318C30AB19AA1AA91B1204358F3E
:100B5700378E368D358C347F0A7ED77D237C3CAB30
:100B670037AA36A935A8341200FBE4FBFA792078B6
:100B7700C212000A8F438E428D418C40AF33AE3292
:100B8700AD31AC30AB27AA26A925A8241200FBABB0
:100B970033AA32A931A8301200FBC004C005C00631
:100BA700C007AF33AE32AD31AC30AB23AA22A92197
:100BB700A8201200FBD003D002D001D00012000AF7
:100BC700AB1FAA1EA91DA81C12000A8F3B8E3A8DC7
:100BD700398C38AF33AE32AD31AC30AB2FAA2EA93A
:100BE7002DA82C1200FBAB2BAA2AA929A828120092
:100BF7000AC004C005C006C007E4FFFE7DC87CC16B
:100C0700AB43AA42A941A84012000AD003D002D0A0
:100C170001D0001200FBAB3BAA3AA939A838120051
:100C27000AE4FBFA794078C012000A8F3F8E3E8DA6
:100C37003D8C3CE4FFFE7DC87C42AB3FAA3EA93D0C
:100C4700A83C120201600D400BE4F53FF53E753DEF
:100C5700C8753C427FCD7ECC7DCC7C3DAB3FAA3E68
:100C6700A93DA83C120201500C753FCD753ECC75CD
:100C77003DCC753C3DAF43AE42AD41AC40AB19AA4C
:100C87001AA91B120455AF3FAE3EAD3DAC3CAB16A7
:070C9700AA17A91802045579
:1010240054453A0052483A002D00430025006E65AD
:0810340067610020202020006C
:10103C0002470014024B000A024400320249002805
:03104C000146005A
:100C9E008B168A178918AC4BAD4CEC12027FAB1633
:100CAE00AA17A91812046F12020160025004C29012
:100CBE008002D290AC47AD48EC12027FAB16AA1759
:100CCE00A91812046F1202014004C2918002D2913F
:100CDE00AC49AD4AEC12027FAB19AA1AA91B120439
:100CEE006F12020160025004C2928002D292AC4492
:100CFE00AD45EC12027FAB19AA1AA91B12046F1292
:100D0E0002014004C2938002D293AC4BAD4CEC1264
:100D1E00027FAB16AA17A91812046F1202016046C1
:100D2E004044AC47AD48EC12027FAB16AA17A91887
:100D3E0012046F120201502EAC49AD4AEC12027F22
:100D4E00AB19AA1AA91B12046F12020160184016E1
:100D5E00AC44AD45EC12027FAB19AA1AA91B1204C2
:0C0D6E006F1202014003C29422D29422B2
:10051D002095727F327E00120F872095680546E583
:10052D0046B40503E4F5463095FD120F5C121050EC
:10053D007BFF7A1079247D01E4FF120EC87BFF7AD0
:10054D001079287D02E4FF120EC87BFF7A10792CFA
:10055D007D017F06120EC87BFF7A10792C7D027FFC
:10056D0006120EC87BFF7A10792E7D017F0A120EBE
:10057D00C87BFF7A1079307D027F0A120EC87F1476
:10058D007E00120FA6E5466401600302066B2096FD
:10059D002E7F32FE120F87054CE54C7002054BE5A0
:1005AD004824FFFFE54734FFFED3E54C9FEE648002
:1005BD00F8E54B64809840048E4B8F4C3096FD20AF
:1005CD0097277F327E00120F87D3E54C94D8E54BE9
:1005DD006480947F500885474B85484C8008E54CD6
:1005ED00154C7002154B3097FDAE4BAF4C7C007D1A
:1005FD00641203DBEF2430FB7D017F03120FF1AE9C
:10060D004BAF4C7C007D641203DB7E007F0ACFCDA7
:10061D00CFCECCCE1203DB121061EF2430FB7D0167
:10062D007F04120FF1AE4BAF4C7C007D0A1203DB41
:10063D00AE04AF05121061EF2430FB7D017F051272
:10064D000FF1C3E54B648094807BFF50067A1079DF
:10065D003280047A1079377D027F0C120EC8E54680
:10066D00640260030207152096227F96FE120F8703
:10067D000548E54870020547D3947BE547648094AF
:10068D0080400675470075487B3096FD20972A12ED
:10069D000F83E548154870021547E54C2401FFE42A
:1006AD00354BFEC3E5489FEE6480F8E547648098BE
:1006BD0050048E478F483097FDAE47AF487C007D84
:1006CD00641203DBEF2430FB7D017F07120FF1AEC7
:1006DD0047AF487C007D641203DB7E007F0ACFCDDF
:1006ED00CFCECCCE1203DBEF2430FB7D017F081281
:1006FD000FF1AE47AF487C007D0A1203DBED2430CD
:10070D00FB7D017F09120FF1E546640360030207CB
:10071D00C320962E7F96FE120F87054AE54A70027A
:10072D000549E54524FFFFE54434FFFED3E54A9F27
:10073D00EE6480F8E54964809840048E498F4A3014
:10074D0096FD209722120F83D3E54A9400E5496464
:10075D008094805007E4F549F54A8008E54A154A2A
:10076D00700215493097FDAE49AF4A7C007D641289
:10077D0003DBEF2430FB7D027F03120FF1AE49AF97
:10078D004A7C007D641203DB7E007F0ACFCDCFCE85
:10079D00CCCE1203DBEF2430FB7D027F04120FF170
:1007AD00AE49AF4A7C007D0A1203DBED2430FB7DA0
:1007BD00027F05120FF1E5466404600302086D2007
:1007CD0096227F96FE120F870545E545700205447A
:1007DD00D39463E544648094804006754400754568
:1007ED00633096FD20972A120F83E545154570025B
:1007FD001544E54A2401FFE43549FEC3E5459FEE66
:10080D006480F8E54464809850048E448F45309799
:10081D00FDAE44AF457C007D641203DBEF2430FB5D
:10082D007D027F07120FF1AE44AF457C007D64124F
:10083D0003DB7E007F0ACFCDCFCECCCE1203DBEF14
:10084D002430FB7D027F08120FF1AE44AF457C00D2
:10085D007D0A1203DBED2430FB7D027F09120FF1BF
:10086D0020B7167F0A7E00120F8720B70C30B7FD18
:0A087D00E4F546120F5C1210502241
:040F83007F967E00D7
:100F87007DFAD3EF9400EE9400400FDDFE7DF9DD8E
:0A0F9700FE7DFAEF1F70EB1E80E8EC
:010FA100222D
:10000300020324E86480F8E933E83360110460F004
:10001300ED33EC337009E8FCE9FDEAFEEBFF220463
:1000230060DED3EB9FEA9EE99DE8C2E78CF0C2F75E
:1000330095F0400CE8CCF8E9CDF9EACEFAEBCFFB2A
:100043001202EF85D0F05804700320D5B3E8047092
:10005300075002B2D502032E92D5EC0460F7E4CC2C
:10006300C0E0C398F8603B94186008400DD0E0FBF3
:10007300020306E4FBFAC9FC8028E830E406E4C97D
:10008300FBE4CAFCE830E305E4C9CACBFCE8540747
:100093006010F8C3E913F9EA13FAEB13FBEC13FC52
:1000A300D8F130F52FC3E49CFCEF9BFFEE9AFEEDF5
:1000B30099FDD0E0FBEF4E4D4C701222DB0302039F
:1000C3002BEC2CFCEF33FFEE33FEED33FDED30E78D
:1000D300EB020306EF2BFFEE3AFEED39FDD0E0FB1A
:1000E30050130BBB000302032EED13FDEE13FEEFC3
:0800F30013FFEC13FC020306ED
:1000FB00EC4D6011E8497017ED33EC3304600DE4FF
:10010B00FCFFFEFD22E933E8330470F802032412EE
:10011B0002EF58046009E4CC2481500628500902F0
:10012B00032E28400302032BC0E0EB4A7044B98036
:10013B0006D0E0FB02031AEF4E701CBD8008EBFFEC
:10014B00EAFEE9FD80EBE98DF0A4FEE5F00201E4A7
:10015B00E9CDF9EAFEEBFFEF89F0A4FCE5F0CE89DF
:10016B00F0A42EFFE435F0CD89F0A42DFEE435F09C
:10017B008067EF4E7005BD80D780C3EF8BF0A4ACCA
:10018B00F0EE8BF0A42CFCE435F0F8EF8AF0A42C05
:10019B00E5F038FCE433CB8DF0A42CFCE5F03BF818
:1001AB00EE8AF0A42CFCE5F038F8E433CF89F0A408
:1001BB002CFCE5F038CF3400CE89F0A42FFFE5F00E
:1001CB003EFEE433C98DF0A42EFEE5F039CD8AF066
:1001DB00A42FFFE5F03EFEE43DFD33D0E0FB5007DE
:1001EB000BBB000F02032EEC2CFCEF33FFEE33FEA8
:0601FB00ED33FD020306D6
:1002010074F8CC6480CCC86480C8F58204604FC3A4
:10021100EB9FF5F0EA9E42F0E99D42F0E89C45F043
:10022100603C501DE5825FFFE582D313CB5BCBF4CD
:100231002B5582FB50280ABA002409B900200880F6
:100241001DE5825BFBE582D313CF5FCFF4C3132F90
:100251005582FF50090EBE00050DBD00010CC3EB18
:100261009FF5F0EA9E42F0E99D42F0E89C45F0607E
:0902710007CC4820E701B3EC22A0
:10027A0075F020800E75F010800575F0087D007EFF
:10028A00007F003392D530D503120411EC334010AD
:10029A00EF33FFEE33FEED33FDEC33FCD5F0ED2208
:0E02AA00E5F0247EA2D513CC92E7CDCEFF2244
:1002B800EDD2E7CD33EC3392D524814006E4FFFE3E
:1002C800FDFC22FCE4CFCECDCC24E0501174FF809D
:1002D800EDC3CC13CCCD13CDCE13CECF13CF04703A
:0702E800F030D5DE02041125
:1002EF00E9D2E7C933E833F892D5EDD2E7CD33EC55
:0702FF0033FC5002B2D522CE
:10030600EC30E7100FBF000C0EBE00080DBD000458
:100316000BEB6014A2D5EB13FCED92E7FD2274FF04
:10032600FCFDFEFF22E480F8A2D574FF13FC7D805D
:03033600E480EF71
:100D8600020887E493A3F8E493A34003F68001F2F4
:100D960008DFF48029E493A3F85407240CC8C3336E
:100DA600C4540F4420C8834004F456800146F6DF3D
:100DB600E4800B010204081020408090103CE47E81
:100DC600019360BCA3FF543F30E509541FFEE49332
:100DD600A360010ECF54C025E060A840B8E493A3F9
:100DE600FAE493A3F8E493A3C8C582C8CAC583CA24
:100DF600F0A3C8C582C8CAC583CADFE9DEE780BEDC
:01104F0000A0
:10033900BB010689828A83E0225002E722BBFE02C2
:09034900E32289828A83E49322F5
:10035200BB010689828A83F0225002F722BBFE018A
:02036200F32284
:10036400F8BB010DE58229F582E5833AF583E8F0CF
:10037400225006E92582C8F622BBFE05E92582C87B
:02038400F22263
:10038600BC000BBE0029EF8DF084FFADF022E4CC5B
:10039600F875F008EF2FFFEE33FEEC33FCEE9DEC24
:1003A600984005FCEE9DFE0FD5F0E9E4CEFD22ED6A
:1003B600F8F5F0EE8420D21CFEADF075F008EF2FB4
:1003C600FFED33FD4007985006D5F0F222C398FDA5
:0503D6000FD5F0EA2242
:1003DB00C2D5EC30E709B2D5E4C39DFDE49CFCEE3D
:1003EB0030E715B2D5E4C39FFFE49EFE120386C32C
:1003FB00E49DFDE49CFC800312038630D507C3E427
:06040B009FFFE49EFE22AB
:0E041100C3E49FFFE49EFEE49DFDE49CFC22FC
:10041F00EB9FF5F0EA9E42F0E99D42F0EC6480C854
:06042F0064809845F022F4
:10043500BB010789828A8302049B5005E9F80204FF
:100445008FBBFE05E9F80204A789828A830204B3FB
:10045500BB010789828A830205055005E9F8020474
:0A046500F9BBFE05E9F802051122BB
:10046F00BB010789828A830204D05005E9F8020490
:10047F00C3BBFE05E9F80204DC89828A830204E922
:0C106100EE30E707C3E49FFFE49EFE2290
:0C048F00E6FC08E6FD08E6FE08E6FF2299
:0C049B00E0FCA3E0FDA3E0FEA3E0FF22D4
:0C04A700E2FC08E2FD08E2FE08E2FF2291
:1004B300E493FC740193FD740293FE740393FF228F
:0D04C300E6FB08E6F908E6FA08E6CBF822A9
:0C04D000E0F8A3E0F9A3E0FAA3E0FB22AF
:0D04DC00E2FB08E2F908E2FA08E2CBF822A0
:1004E900E493F8740193F9740293FA740393FB2269
:0C04F900ECF608EDF608EEF608EFF6222F
:0C050500ECF0A3EDF0A3EEF0A3EFF02269
:0C051100ECF208EDF208EEF208EFF22226
:00000001FF
