:03000000020D6B83
:0C0D6B00787FE4F6D8FD75814C020DB2D3
:100F480054453A005454542E54430052483A0052DF
:100F580052522E5225002E0043202020002520200A
:020F6800200067
:10088700120F211210377BFF7A0F79487D01E4FFA1
:10089700120EB97BFF7A0F794C7D017F03120EB9D7
:1008A7007BFF7A0F79537D02E4FF120EB97BFF7A43
:1008B7000F79577D027F03120EB97FD07E07120F83
:1008C7008DE5462430FB7D017F0D120FD812051DE3
:1008D700E54670EDF510F519751A00751B11751CB5
:1008E70001FB7A007908120DF7EF2510F51075193D
:1008F70000751A00751B11E4F51CFB7A00790C12C0
:100907000DF7EF2510F5106006121037020AE8AC54
:1009170008AD09E412027F8F0B8E0A8D098C08AC93
:100927000CAD0DE412027F8F0F8E0E8D0D8C0C75A2
:100937001900751A00751B0C7B007A007908120ADA
:10094700F27BFF7A0F79487D01E4FF120EB97BFF36
:100957007A0F79537D02E4FF120EB97BFF7A0F7984
:100967005E7D017F06120EB97BFF7A0F795E7D02ED
:100977007F06120EB97BFF7A0F79607D017F08121F
:100987000EB97BFF7A0F79657D027F08120EB9E4F5
:10099700FFFE7D207C41AB0FAA0EA90DA80C12000B
:1009A700FB1202B88E128F13E4FFFE7D207C41AB51
:1009B7000FAA0EA90DA80C1200FBE4FBFAF9F81216
:1009C7000201600640047B2D8012AF13AE12121095
:1009D700487C037DE81203DBEF2430FB7D017F03B6
:1009E700120FD8AF13AE121210487C037DE8120322
:1009F700DB7E007F64CFCDCFCECCCE1203DBEF24DE
:100A070030FB7D017F04120FD8AF13AE12121048CE
:100A17007C007D641203DB7E007F0ACFCDCFCECC76
:100A2700CE1203DBEF2430FB7D017F05120FD8AF19
:100A370013AE121210487C007D0A1203DBED24303E
:100A4700FB7D017F07120FD8E4FFFE7D207C41ABC1
:100A57000BAA0AA909A8081200FB1202B88E148F64
:100A6700157C037DE8120386EF2430FB7D027F03AC
:100A7700120FD8AE14AF157C037DE81203867E00F3
:100A87007F64CFCDCFCECCCE120386EF2430FB7D53
:100A9700027F04120FD8AE14AF157C007D641203D9
:100AA700867E007F0ACFCDCFCECCCE120386EF2431
:100AB70030FB7D027F05120FD8AE14AF157C007D89
:100AC7000A120386ED2430FB7D027F07120FD875CB
:100AD7001900751A00751B087B007A00790C120C37
:0B0AE7008F7F207E03120F8D0208C8D5
:100F2100120F897F38120FA4120F897F0C120FA4A0
:100F3100120F897F06120FA4120F897F01120FA4CD
:070F41007F647E00020F8DAA
:100FA4008F1A120F89C2A0C2A1D2A2851A80120F71
:0A0FB40089C2A27F0A7E00020F8DA1
:100FBE008F1A120F89D2A0C2A1D2A2851A80120F47
:0A0FCE0089C2A27F0A7E00020F8D87
:020FD8008B1676
:100FDA00EFBD01062480F517800424C0F517AF176A
:080FEA00120FA4AF16020FBEA6
:060EB9008B168A17891850
:100EBF00EFBD01062480F519800424C0F519AF1980
:100ECF00120FA4AB16AA17A918120339FF6010123C
:0F0EDF000FBE74012518F518E43517F51780E4D8
:010EEE0022E1
:040F89007F0A7E005D
:100F8D00D3EF9400EE9400400D000000000000EF40
:060F9D001F70ED1E80EA4A
:010FA300222B
:100FF200D2A7C2A600D2A600C2A700C2A6000000C5
:09100200D2A600D2A700C2A6226A
:10103700D2A7C2A6E4FFD2A6C2A60FBF09F8020F25
:01104700F2B6
:100EEF00E4FE7D80EDD394004017ED5F6004D2A740
:100EFF008002C2A7D2A6000000C2A6EDC313FD80D8
:100F0F00E3D2A7D2A6A2A7E433000000C2A6D2A7BD
:010F1F00FFD2
:010F200022AE
:100E7F00E4FED2A77D80EDD394004013D2A630A715
:100E8F0003ED4206000000C2A6EDC313FD80E7BFCD
:100E9F000104C2A78002D2A7000000D2A600000062
:090EAF00C2A6000000D2A7AF06A4
:010EB8002217
:060DF7008B168A17891813
:100DFD00E4F51DF51E120FF2E51C146007047018C2
:100E0D007F0380027F05120EEFEF3395E0FEEF2595
:100E1D001EF51EEE351DF51D900000AF82AE83E46C
:100E2D00FCFD7BFF7AFFF9F8D312041F400630A7B3
:100E3D0003A380E730A708051EE51E7002051D7F80
:100E4D0001120E7FAB16AA17A918EF1203527F01DC
:100E5D00120E7FAB16AA17A918900001EF120364AA
:100E6D00E4FF120E7FAB19AA1AA91BEF120352AFA2
:010E7D001E56
:010E7E002251
:060AF2008B168A1789181B
:100AF800E4F51FF51E751D80751CC07523547522FD
:100B0800E375212575203D7527A27526E775253BD8
:100B18007524B6752B0A752AD775292375283C754F
:100B28002FAC752EC5752DA7752C381204358F334B
:100B38008E328D318C30AB19AA1AA91B1204358F4D
:100B4800378E368D358C347F0A7ED77D237C3CAB3F
:100B580037AA36A935A8341200FBE4FBFA792078C5
:100B6800C212000A8F438E428D418C40AF33AE32A1
:100B7800AD31AC30AB27AA26A925A8241200FBABBF
:100B880033AA32A931A8301200FBC004C005C00640
:100B9800C007AF33AE32AD31AC30AB23AA22A921A6
:100BA800A8201200FBD003D002D001D00012000A06
:100BB800AB1FAA1EA91DA81C12000A8F3B8E3A8DD6
:100BC800398C38AF33AE32AD31AC30AB2FAA2EA949
:100BD8002DA82C1200FBAB2BAA2AA929A8281200A1
:100BE8000AC004C005C006C007E4FFFE7DC87CC17A
:100BF800AB43AA42A941A84012000AD003D002D0B0
:100C080001D0001200FBAB3BAA3AA939A838120060
:100C18000AE4FBFA794078C012000A8F3F8E3E8DB5
:100C28003D8C3CE4FFFE7DC87C42AB3FAA3EA93D1B
:100C3800A83C120201600D400BE4F53FF53E753DFE
:100C4800C8753C427FCD7ECC7DCC7C3DAB3FAA3E77
:100C5800A93DA83C120201500C753FCD753ECC75DC
:100C68003DCC753C3DAF43AE42AD41AC40AB19AA5B
:100C78001AA91B120455AF3FAE3EAD3DAC3CAB16B6
:070C8800AA17A91802045588
:10100B0054453A0052483A002D00430025006E65C6
:08101B00676100202020200085
:1010230002470014024B000A02440032024900281E
:0310330001460073
:100C8F008B168A178918AC4BAD4CEC12027FAB1642
:100C9F00AA17A91812046F12020160025004C29021
:100CAF008002D290AC47AD48EC12027FAB16AA1768
:100CBF00A91812046F1202014004C2918002D2914E
:100CCF00AC49AD4AEC12027FAB19AA1AA91B120448
:100CDF006F12020160025004C2928002D292AC44A1
:100CEF00AD45EC12027FAB19AA1AA91B12046F12A1
:100CFF0002014004C2938002D293AC4BAD4CEC1274
:100D0F00027FAB16AA17A91812046F1202016046D0
:100D1F004044AC47AD48EC12027FAB16AA17A91896
:100D2F0012046F120201502EAC49AD4AEC12027F31
:100D3F00AB19AA1AA91B12046F12020160184016F0
:100D4F00AC44AD45EC12027FAB19AA1AA91B1204D1
:0C0D5F006F1202014003C29422D29422C1
:10051D002095727F327E00120F6E2095680546E59C
:10052D0046B40503E4F5463095FD120F2112103740
:10053D007BFF7A10790B7D01E4FF120EB97BFF7AF8
:10054D0010790F7D02E4FF120EB97BFF7A1079133B
:10055D007D017F06120EB97BFF7A1079137D027F24
:10056D0006120EB97BFF7A1079157D017F0A120EE6
:10057D00B97BFF7A1079177D027F0A120EB97F14AD
:10058D007E00120F8DE5466401600302066B209616
:10059D002E7F32FE120F6E054CE54C7002054BE5B9
:1005AD004824FFFFE54734FFFED3E54C9FEE648002
:1005BD00F8E54B64809840048E4B8F4C3096FD20AF
:1005CD0097277F327E00120F6ED3E54C94D8E54B02
:1005DD006480947F500885474B85484C8008E54CD6
:1005ED00154C7002154B3097FDAE4BAF4C7C007D1A
:1005FD00641203DBEF2430FB7D017F03120FD8AEB5
:10060D004BAF4C7C007D641203DB7E007F0ACFCDA7
:10061D00CFCECCCE1203DB121048EF2430FB7D0180
:10062D007F04120FD8AE4BAF4C7C007D0A1203DB5A
:10063D00AE04AF05121048EF2430FB7D017F05128B
:10064D000FD8C3E54B648094807BFF50067A1079F8
:10065D001980047A10791E7D027F0C120EB9E546C1
:10066D00640260030207152096227F96FE120F6E1C
:10067D000548E54870020547D3947BE547648094AF
:10068D0080400675470075487B3096FD20972A12ED
:10069D000F6AE548154870021547E54C2401FFE443
:1006AD00354BFEC3E5489FEE6480F8E547648098BE
:1006BD0050048E478F483097FDAE47AF487C007D84
:1006CD00641203DBEF2430FB7D017F07120FD8AEE0
:1006DD0047AF487C007D641203DB7E007F0ACFCDDF
:1006ED00CFCECCCE1203DBEF2430FB7D017F081281
:1006FD000FD8AE47AF487C007D0A1203DBED2430E6
:10070D00FB7D017F09120FD8E546640360030207E4
:10071D00C320962E7F96FE120F6E054AE54A700293
:10072D000549E54524FFFFE54434FFFED3E54A9F27
:10073D00EE6480F8E54964809840048E498F4A3014
:10074D0096FD209722120F6AD3E54A9400E549647D
:10075D008094805007E4F549F54A8008E54A154A2A
:10076D00700215493097FDAE49AF4A7C007D641289
:10077D0003DBEF2430FB7D027F03120FD8AE49AFB0
:10078D004A7C007D641203DB7E007F0ACFCDCFCE85
:10079D00CCCE1203DBEF2430FB7D027F04120FD889
:1007AD00AE49AF4A7C007D0A1203DBED2430FB7DA0
:1007BD00027F05120FD8E5466404600302086D2020
:1007CD0096227F96FE120F6E0545E5457002054493
:1007DD00D39463E544648094804006754400754568
:1007ED00633096FD20972A120F6AE5451545700274
:1007FD001544E54A2401FFE43549FEC3E5459FEE66
:10080D006480F8E54464809850048E448F45309799
:10081D00FDAE44AF457C007D641203DBEF2430FB5D
:10082D007D027F07120FD8AE44AF457C007D641268
:10083D0003DB7E007F0ACFCDCFCECCCE1203DBEF14
:10084D002430FB7D027F08120FD8AE44AF457C00EB
:10085D007D0A1203DBED2430FB7D027F09120FD8D8
:10086D0020B7167F0A7E00120F6E20B70C30B7FD31
:0A087D00E4F546120F211210372295
:040F6A007F967E00F0
:100F6E007DFAD3EF9400EE9400400FDDFE7DF9DDA7
:0A0F7E00FE7DFAEF1F70EB1E80E805
:010F88002246
:10000300020324E86480F8E933E83360110460F004
:10001300ED33EC337009E8FCE9FDEAFEEBFF220463
:1000230060DED3EB9FEA9EE99DE8C2E78CF0C2F75E
:1000330095F0400CE8CCF8E9CDF9EACEFAEBCFFB2A
:100043001202EF85D0F05804700320D5B3E8047092
:10005300075002B2D502032E92D5EC0460F7E4CC2C
:10006300C0E0C398F8603B94186008400DD0E0FBF3
:10007300020306E4FBFAC9FC8028E830E406E4C97D
:10008300FBE4CAFCE830E305E4C9CACBFCE8540747
:100093006010F8C3E913F9EA13FAEB13FBEC13FC52
:1000A300D8F130F52FC3E49CFCEF9BFFEE9AFEEDF5
:1000B30099FDD0E0FBEF4E4D4C701222DB0302039F
:1000C3002BEC2CFCEF33FFEE33FEED33FDED30E78D
:1000D300EB020306EF2BFFEE3AFEED39FDD0E0FB1A
:1000E30050130BBB000302032EED13FDEE13FEEFC3
:0800F30013FFEC13FC020306ED
:1000FB00EC4D6011E8497017ED33EC3304600DE4FF
:10010B00FCFFFEFD22E933E8330470F802032412EE
:10011B0002EF58046009E4CC2481500628500902F0
:10012B00032E28400302032BC0E0EB4A7044B98036
:10013B0006D0E0FB02031AEF4E701CBD8008EBFFEC
:10014B00EAFEE9FD80EBE98DF0A4FEE5F00201E4A7
:10015B00E9CDF9EAFEEBFFEF89F0A4FCE5F0CE89DF
:10016B00F0A42EFFE435F0CD89F0A42DFEE435F09C
:10017B008067EF4E7005BD80D780C3EF8BF0A4ACCA
:10018B00F0EE8BF0A42CFCE435F0F8EF8AF0A42C05
:10019B00E5F038FCE433CB8DF0A42CFCE5F03BF818
:1001AB00EE8AF0A42CFCE5F038F8E433CF89F0A408
:1001BB002CFCE5F038CF3400CE89F0A42FFFE5F00E
:1001CB003EFEE433C98DF0A42EFEE5F039CD8AF066
:1001DB00A42FFFE5F03EFEE43DFD33D0E0FB5007DE
:1001EB000BBB000F02032EEC2CFCEF33FFEE33FEA8
:0601FB00ED33FD020306D6
:1002010074F8CC6480CCC86480C8F58204604FC3A4
:10021100EB9FF5F0EA9E42F0E99D42F0E89C45F043
:10022100603C501DE5825FFFE582D313CB5BCBF4CD
:100231002B5582FB50280ABA002409B900200880F6
:100241001DE5825BFBE582D313CF5FCFF4C3132F90
:100251005582FF50090EBE00050DBD00010CC3EB18
:100261009FF5F0EA9E42F0E99D42F0E89C45F0607E
:0902710007CC4820E701B3EC22A0
:10027A0075F020800E75F010800575F0087D007EFF
:10028A00007F003392D530D503120411EC334010AD
:10029A00EF33FFEE33FEED33FDEC33FCD5F0ED2208
:0E02AA00E5F0247EA2D513CC92E7CDCEFF2244
:1002B800EDD2E7CD33EC3392D524814006E4FFFE3E
:1002C800FDFC22FCE4CFCECDCC24E0501174FF809D
:1002D800EDC3CC13CCCD13CDCE13CECF13CF04703A
:0702E800F030D5DE02041125
:1002EF00E9D2E7C933E833F892D5EDD2E7CD33EC55
:0702FF0033FC5002B2D522CE
:10030600EC30E7100FBF000C0EBE00080DBD000458
:100316000BEB6014A2D5EB13FCED92E7FD2274FF04
:10032600FCFDFEFF22E480F8A2D574FF13FC7D805D
:03033600E480EF71
:100D7700020887E493A3F8E493A34003F68001F203
:100D870008DFF48029E493A3F85407240CC8C3337D
:100D9700C4540F4420C8834004F456800146F6DF4C
:100DA700E4800B0102040810204080901023E47EA9
:100DB700019360BCA3FF543F30E509541FFEE49341
:100DC700A360010ECF54C025E060A840B8E493A308
:100DD700FAE493A3F8E493A3C8C582C8CAC583CA33
:100DE700F0A3C8C582C8CAC583CADFE9DEE780BEEB
:0110360000B9
:10033900BB010689828A83E0225002E722BBFE02C2
:09034900E32289828A83E49322F5
:10035200BB010689828A83F0225002F722BBFE018A
:02036200F32284
:10036400F8BB010DE58229F582E5833AF583E8F0CF
:10037400225006E92582C8F622BBFE05E92582C87B
:02038400F22263
:10038600BC000BBE0029EF8DF084FFADF022E4CC5B
:10039600F875F008EF2FFFEE33FEEC33FCEE9DEC24
:1003A600984005FCEE9DFE0FD5F0E9E4CEFD22ED6A
:1003B600F8F5F0EE8420D21CFEADF075F008EF2FB4
:1003C600FFED33FD4007985006D5F0F222C398FDA5
:0503D6000FD5F0EA2242
:1003DB00C2D5EC30E709B2D5E4C39DFDE49CFCEE3D
:1003EB0030E715B2D5E4C39FFFE49EFE120386C32C
:1003FB00E49DFDE49CFC800312038630D507C3E427
:06040B009FFFE49EFE22AB
:0E041100C3E49FFFE49EFEE49DFDE49CFC22FC
:10041F00EB9FF5F0EA9E42F0E99D42F0EC6480C854
:06042F0064809845F022F4
:10043500BB010789828A8302049B5005E9F80204FF
:100445008FBBFE05E9F80204A789828A830204B3FB
:10045500BB010789828A830205055005E9F8020474
:0A046500F9BBFE05E9F802051122BB
:10046F00BB010789828A830204D05005E9F8020490
:10047F00C3BBFE05E9F80204DC89828A830204E922
:0C104800EE30E707C3E49FFFE49EFE22A9
:0C048F00E6FC08E6FD08E6FE08E6FF2299
:0C049B00E0FCA3E0FDA3E0FEA3E0FF22D4
:0C04A700E2FC08E2FD08E2FE08E2FF2291
:1004B300E493FC740193FD740293FE740393FF228F
:0D04C300E6FB08E6F908E6FA08E6CBF822A9
:0C04D000E0F8A3E0F9A3E0FAA3E0FB22AF
:0D04DC00E2FB08E2F908E2FA08E2CBF822A0
:1004E900E493F8740193F9740293FA740393FB2269
:0C04F900ECF608EDF608EEF608EFF6222F
:0C050500ECF0A3EDF0A3EEF0A3EFF02269
:0C051100ECF208EDF208EEF208EFF22226
:00000001FF
