:03000000020B4DA3
:0C0B4D00787FE4F6D8FD758152020B940D
:100F4E00C0F9A4B0999282F88090C68689C7BF0076
:100F2D00024D001E024F000E0249004E024B000CF6
:08000300E4F5E7F5E5F5E6225E
:100EB100AD07AC0675E78375E5038CE3AF058FE4F9
:0E0EC100C2AF75E64675E6B900D2AF02000377
:040E6F00AF03AE021D
:040E7300AD07AC0615
:100E770075E78375E5018CE3AF058FE475E6467585
:080E8700E6B900AFE21200031E
:010E8F002240
:050E9000FDAF13AE12DE
:100E9500AB07AA0675E78375E5028AE3AF038FE41E
:0C0EA5008DE275E64675E6B90002000318
:100BD900751220751300AF13AE12120EB17D7B1280
:100BE9000E910513E51370020512E54D120E9005DD
:100BF90013E51370020512AD4EFFAE12120E9505E4
:100C090013E51370020512E54F120E900513E51353
:100C190070020512AD50FFAE12120E950513E513C1
:100C290070020512E549120E900513E513700205CD
:100C390012AD4AFFAE12120E950513E513700205A7
:100C490012E54B120E900513E51370020512AD4C17
:060C5900FFAE12020E9531
:100AB600E4FFFB7A207E20120E73EF647B60030254
:100AC6000B490BBB00010A120E6FA9070BBB0001F5
:100AD6000A120E6FAD07E9FE7C00E42DF54EEC3EE2
:100AE600F54D0BBB00010A120E6FA9070BBB0001E7
:100AF6000A120E6FAD07E9FE7C00E42DF550EC3EC0
:100B0600F54F0BBB00010A120E6FA9070BBB0001C4
:100B16000A120E6FAD07E9FE7C00E42DF54AEC3EA5
:100B2600F5490BBB00010A120E6FA9070BBB0001AA
:100B36000A120E6FAD07E9FE7C00E42DF54CEC3E83
:060B4600F54B22120BD951
:010B4C002286
:0F0F3E001FEF600BE4FEEEC3946450F40E80F7D7
:010F4D002281
:0F0E2300D283744E2BF582740F3AF583E493FF5C
:100E3200E4FEEF3392A1D2A0C2A0EF25E0FF0EBEE6
:060E420008F0D2A2C2A2DA
:010E48002287
:100A0900AE51AF527C007D6412036C8E838F82AE2F
:100A190051AF527C007D6412036C7E007F0ACFCDFA
:100A2900CFCECCCE12036CAA06AB07AE51AF527C27
:100A3900007D0A12036C8C178D18AD82AC837F0C74
:020A4900A907FB
:100A4B00744E2518F582740F3517120E2DC283E4E0
:100A5B00FFFE0FBF00010EBE03F8BFE9F5120E2318
:100A6B00C282E4FEFF0FBF00010EBE03F8BFE9F523
:100A7B00D282744E2DF582740F3C120E2DC281E47E
:100A8B00FEFF0FBF00010EBE03F8BFE9F5D281E9EF
:100A9B00900F4E93FF120E32C280E4FEFF0FBF0089
:0A0AAB00010EBE03F8BFE9F5D2808A
:010AB500221E
:060D3B008C168D17A907BC
:100D4100E4FDFC744E251BF582740F351A120E2D2D
:100D5100C2837F03120F3E120E23C2827F03120F42
:100D61003ED282744E2517F582740F3516F583E451
:100D7100932480FF120E32C2817F03120F3ED28173
:100D8100E9900F4E93FF120E32C2807F03120F3E85
:0D0D9100D2800DBD00010CED64514C70A628
:010D9E002232
:020CD5008F127C
:100CD700E4F513F514C295AE51AF527C007D641252
:100CE700036CC007AE51AF527C007D6412036C7E6B
:100CF700007F0ACFCDCFCECCCE12036CAC06AD07AA
:100D0700C004C005AE51AF527C007D0A12036CAA25
:100D170004AB05751A0085121BD005D004D0071245
:100D27000D3B0514E51470020513C39401E51394F4
:030D37000040A2D7
:010D3A002296
:100D9F00E4FD7C80ECD394004025EC5F6004D2909E
:100DAF008002C290D296E4FE000EBE0AFB0000C283
:100DBF009600E4FE000EBE07FBECC313FC80D5D2F9
:100DCF0090E4FE000EBE05FBD296A290E433FDE444
:0C0DDF00FE000EBE05FBC296D290AF05D0
:010DEB0022E5
:100DEC00E4FED2907D80EDD394004013D2963090E7
:100DFC0003ED4206000000C296EDC313FD80E7BF71
:100E0C000104C2908002D290D296000000C29600DB
:060E1C000000D290AF06B9
:010E220022AD
:100EEA00D290C29600D29600C29000C2960000002C
:090EFA00D29600D29000C29622AB
:100F1A00D290C296E4FFD29600C296000FBF09F69D
:030F2A00020EEACA
:060C5F008B128A138914B8
:100C6500E4F519120EEAE51814600704700E7F0307
:100C750080027F05120D9FEF2519F519900000AF31
:100C850082AE83E4FCFD7BFF7AFFF9F8D31203CF34
:100C95004006309003A380E730900205197F0112CA
:100CA5000DECAB12AA13A914EF1203387F01120D34
:100CB500ECAB12AA13A914900001EF12034AE4FF4A
:0F0CC500120DECAB15AA16A917EF120338AF19D1
:010CD40022FD
:060625008B128A138914F8
:10062B00E4F51BF51A7519807518C0751F54751EE6
:10063B00E3751D25751C3D7523A27522E775213BBE
:10064B007520B675270A7526D775252375243C7535
:10065B002BAC752AC57529A77528381203E58F2F82
:10066B008E2E8D2D8C2CAB15AA16A9171203E58F88
:10067B00338E328D318C307F0A7ED77D237C3CAB21
:10068B0033AA32A931A830120106E4FBFA7920789B
:10069B00C21200158F3F8E3E8D3D8C3CAF2FAE2E80
:1006AB00AD2DAC2CAB23AA22A921A820120106AB9D
:1006BB002FAA2EA92DA82C120106C004C005C00616
:1006CB00C007AF2FAE2EAD2DAC2CAB1FAA1EA91D94
:1006DB00A81C120106D003D002D001D000120015C5
:1006EB00AB1BAA1AA919A8181200158F378E368DB5
:1006FB00358C34AF2FAE2EAD2DAC2CAB2BAA2AA93B
:10070B0029A828120106AB27AA26A925A82412007E
:10071B0015C004C005C006C007E4FFFE7DC87CC140
:10072B00AB3FAA3EA93DA83C120015D003D002D086
:10073B0001D000120106AB37AA36A935A834120036
:10074B00158F3B8E3A8D398C38E4FFFE7DC87C4289
:10075B00AB3BAA3AA939A83812020C600D400BE446
:10076B00F53BF53A7539C87538427FCD7ECC7DCCDB
:10077B007C3DAB3BAA3AA939A83812020C500C7538
:10078B003BCD753ACC7539CC75383DAF3FAE3EADF0
:10079B003DAC3CAB15AA16A917120405AF3BAE3AFC
:0D07AB00AD39AC38AB12AA13A91402040535
:100ECF002092177F02120F3E20920F05443092FDA1
:0B0EDF00E544C394034003E4F5442203
:1007B8000208DBE54470030208E1640170662093D7
:1007C8002A7F02120F3E2093227405254EF54EE42F
:1007D800354DF54DC3E54E94E7E54D940340067558
:1007E8004D03754EE7120BD93093FD20942A7F05EF
:1007F800120F3E20942274FB254EF54E74FF354DA2
:10080800F54DD3E54E9400E54D94005005E4F54DC3
:10081800F54E120BD93094FD120AB6854D51854E0E
:1008280052120A09E544640260030208DB20932A95
:100838007F05120F3E20932274052550F550E435AC
:100848004FF54FC3E55094E7E54F94034006754FC5
:10085800037550E7120BD93093FD20942A7F0512B7
:100868000F3E20942274FB2550F55074FF354FF548
:100878004FD3E5509400E54F94005005E4F54FF54B
:1008880050120BD93094FD120AB6854F518550523B
:10089800AE51AF527C007D6412036C8E838F82AEA2
:1008A80051AF527C007D6412036C7E007F0ACFCD6D
:1008B800CFCECCCE12036CAA06AB07AE51AF527C9A
:1008C800007D0A12036C8C178D18AD82AC837F0DE6
:0A08D800120A49120ECF0207BB22DC
:1008E200120ECFE5447003020A0864017066209379
:1008F2002A7F05120F3E209322740A254AF54AE404
:100902003549F549C3E54A94E7E54994034006753C
:100912004903754AE7120BD93093FD20942A7F05CB
:10092200120F3E20942274F6254AF54A74FF354987
:10093200F549D3E54A9400E54994005005E4F549A8
:10094200F54A120BD93094FD120AB6854951854AEF
:1009520052120A09120ECFE5446402708620932ACD
:100962007F05120F3E209322740A254CF54CE43584
:100972004BF54BC3E54C94E7E54B94034006754BAE
:1009820003754CE7120BD93093FD20942A7F051290
:100992000F3E20942274F6254CF54C74FF354BF52E
:1009A2004BD3E54C9400E54B94005005E4F54BF530
:1009B2004C120BD93094FD120AB6854B51854C521C
:1009C200AE51AF527C007D6412036C8E838F82AE77
:1009D20051AF527C007D6412036C7E007F0ACFCD42
:1009E200CFCECCCE12036CAA06AB07AE51AF527C6F
:1009F200007D0A12036C8C178D18AD82AC837F0DBB
:070A0200120A490208E52277
:100F0300D2AFD2A9758901758C3C758AB0D28CE4B5
:070F1300F544F545F5462207
:10047700120F03120AB6803AC28CE4F510F515750F
:100487001600751711751801FB7A007908120C5FB1
:10049700EF2510F510751500751600751711E4F5A1
:1004A70018FB7A00790C120C5FEF2510F510D28C2F
:1004B7006005120F1A80C1AC08AD09E412027E8FE5
:1004C7000B8E0A8D098C08AC0CAD0DE412027E8FE1
:1004D7000F8E0E8D0D8C0C75150075160075170C8B
:1004E7007B007A007908120625E548C39405500376
:1004F70002058EE4FFFE7D207C41AB0FAA0EA90DFD
:10050700A80C1201061202B78E518F527C007D642F
:1005170012036CC007AE51AF527C007D6412036CAE
:100527007E007F0ACFCDCFCECCCE12036CAC06AD0A
:1005370007C004C005AE51AF527C007D0A12036CA0
:10054700AA04AB05751A00751B0AD005D004D0079D
:10055700120D3B1207B8C3E552954EE551954D4034
:1005670009C2847F0A120CD58004D295D284D3E5C0
:10057700529550E551954F5007C2857F0A020618DC
:10058700D295D28502047FE4FFFE7D207C41AB0B30
:10059700AA0AA909A8081201061202B78E518F529A
:1005A7007C007D6412036CC007AE51AF527C007DA6
:1005B7006412036C7E007F0ACFCDCFCECCCE120360
:1005C7006CAC06AD07C004C005AE51AF527C007DD0
:1005D7000A12036CAA04AB05751A00751B0CD0052B
:1005E700D004D007120D3B1208E2C3E552954AE545
:1005F7005195494009C2867F0C120CD58004D295CB
:10060700D286D3E552954CE551954B500AC2877F68
:0E0617000C120CD502047FD295D28702047F0C
:03000B00020E4999
:100E4900C0E0C0D0758C3C758AB00547E547C394AE
:100E590014400E7547000548E54894084003754855
:060E690000D0D0D0E03201
:10000E00020323E86480F8E933E83360110460F0FA
:10001E00ED33EC337009E8FCE9FDEAFEEBFF220458
:10002E0060DED3EB9FEA9EE99DE8C2E78CF0C2F753
:10003E0095F0400CE8CCF8E9CDF9EACEFAEBCFFB1F
:10004E001202EE85D0F05804700320D5B3E8047088
:10005E00075002B2D502032D92D5EC0460F7E4CC22
:10006E00C0E0C398F8603B94186008400DD0E0FBE8
:10007E00020305E4FBFAC9FC8028E830E406E4C973
:10008E00FBE4CAFCE830E305E4C9CACBFCE854073C
:10009E006010F8C3E913F9EA13FAEB13FBEC13FC47
:1000AE00D8F130F52FC3E49CFCEF9BFFEE9AFEEDEA
:1000BE0099FDD0E0FBEF4E4D4C701222DB03020394
:1000CE002AEC2CFCEF33FFEE33FEED33FDED30E783
:1000DE00EB020305EF2BFFEE3AFEED39FDD0E0FB10
:1000EE0050130BBB000302032DED13FDEE13FEEFB9
:0800FE0013FFEC13FC020305E3
:10010600EC4D6011E8497017ED33EC3304600DE4F3
:10011600FCFFFEFD22E933E8330470F802032312E4
:1001260002EE58046009E4CC2481500628500902E6
:10013600032D28400302032AC0E0EB4A7044B9802D
:1001460006D0E0FB020319EF4E701CBD8008EBFFE2
:10015600EAFEE9FD80EBE98DF0A4FEE5F00201EF91
:10016600E9CDF9EAFEEBFFEF89F0A4FCE5F0CE89D4
:10017600F0A42EFFE435F0CD89F0A42DFEE435F091
:100186008067EF4E7005BD80D780C3EF8BF0A4ACBF
:10019600F0EE8BF0A42CFCE435F0F8EF8AF0A42CFA
:1001A600E5F038FCE433CB8DF0A42CFCE5F03BF80D
:1001B600EE8AF0A42CFCE5F038F8E433CF89F0A4FD
:1001C6002CFCE5F038CF3400CE89F0A42FFFE5F003
:1001D6003EFEE433C98DF0A42EFEE5F039CD8AF05B
:1001E600A42FFFE5F03EFEE43DFD33D0E0FB5007D3
:1001F6000BBB000F02032DEC2CFCEF33FFEE33FE9E
:06020600ED33FD020305CB
:10020C0074F8CC6480CCC86480C8F582046043C3A5
:10021C00EB9FF5F0EA9E42F0E99D42F0E89C45F038
:10022C0060305018E5825FFFE582F42B5582FB505D
:10023C00210ABA001D09B90019088016E5825BFB7A
:10024C00E582F42F5582FF50090EBE00050DBD004E
:10025C00010CC3EB9FF5F0EA9E42F0E99D42F0E8F9
:0D026C009C45F06007CC4820E701B3EC2270
:1002790075F020800E75F010800575F0087D007E00
:10028900007F003392D530D5031203C1EC334010FF
:10029900EF33FFEE33FEED33FDEC33FCD5F0ED2209
:0E02A900E5F0247EA2D513CC92E7CDCEFF2245
:1002B700EDD2E7CD33EC3392D524814006E4FFFE3F
:1002C700FDFC22FCE4CFCECDCC24E0501174FF809E
:1002D700EDC3CC13CCCD13CDCE13CECF13CF04703B
:0702E700F030D5DE0203C177
:1002EE00E9D2E7C933E833F892D5EDD2E7CD33EC56
:0702FE0033FC5002B2D522CF
:10030500EC30E7100FBF000C0EBE00080DBD000459
:100315000BEB6014A2D5EB13FCED92E7FD2274FF05
:10032500FCFDFEFF22E480F8A2D574FF13FC7D805E
:03033500E480EF72
:100B5900020477E493A3F8E493A34003F68001F237
:100B690008DFF48029E493A3F85407240CC8C3339D
:100B7900C4540F4420C8834004F456800146F6DF6C
:100B8900E4800B0102040810204080900F2DE47EC0
:100B9900019360BCA3FF543F30E509541FFEE49361
:100BA900A360010ECF54C025E060A840B8E493A328
:100BB900FAE493A3F8E493A3C8C582C8CAC583CA53
:100BC900F0A3C8C582C8CAC583CADFE9DEE780BE0B
:010F3D0000B3
:10033800BB010689828A83F0225002F722BBFE01A4
:02034800F3229E
:10034A00F8BB010DE58229F582E5833AF583E8F0E9
:10035A00225006E92582C8F622BBFE05E92582C895
:02036A00F2227D
:10036C00BC000BBE0029EF8DF084FFADF022E4CC75
:10037C00F875F008EF2FFFEE33FEEC33FCEE9DEC3E
:10038C00984005FCEE9DFE0FD5F0E9E4CEFD22ED84
:10039C00F8F5F0EE8420D21CFEADF075F008EF2FCE
:1003AC00FFED33FD4007985006D5F0F222C398FDBF
:0503BC000FD5F0EA225C
:0E03C100C3E49FFFE49EFEE49DFDE49CFC224D
:1003CF00EB9FF5F0EA9E42F0E99D42F0EC6480C8A5
:0603DF0064809845F02245
:1003E500BB010789828A8302042B5005E9F80204C0
:1003F5001FBBFE05E9F802043789828A830204439C
:10040500BB010789828A8302045F5005E9F802046B
:0A04150053BBFE05E9F802046B2258
:0C041F00E6FC08E6FD08E6FE08E6FF2209
:0C042B00E0FCA3E0FDA3E0FEA3E0FF2244
:0C043700E2FC08E2FD08E2FE08E2FF2201
:10044300E493FC740193FD740293FE740393FF22FF
:0C045300ECF608EDF608EEF608EFF622D5
:0C045F00ECF0A3EDF0A3EEF0A3EFF02210
:0C046B00ECF208EDF208EEF208EFF222CD
:00000001FF
