:030000000209CC26
:0C09CC00787FE4F6D8FD75816902049183
:10093F0054656D703A202020202020430048756DAB
:0B094F00693A2020202020255248009B
:10087900E4FE7D80EDD394004017ED5F6004D291D2
:100889008002C291D290000000C290EDC313FD8096
:10089900E3D291D290A291E433000000C290D291A8
:0108A900FF4F
:0108AA00222B
:1008AB00E4FED2917D80EDD394004010D290309134
:1008BB0003ED4206C290EDC313FD80EAEF24FFB3B4
:1008CB009291D290000000C290000000D291AF062E
:0108DB0022FA
:10095A00D291C29000D29000C29100C290000000D1
:09096A00D29000D29100C290224B
:1009A000D291C290E4FFD290C2900FBF09F8020921
:0109B0005AEC
:0D09B100E4FC1209A07F1E120879EC2FFF54
:0109BE002216
:0607F1008B3C8A3D893EAD
:1007F700E4F543F54412095AE542146007047018FA
:100807007F0380027F05120879EF3395E0FEEF251D
:1008170044F544EE3543F543900000AF82AE83E4E0
:10082700FCFD7BFF7AFFF9F8D31203E9400630910C
:1008370003A380E73091080544E544700205437F30
:10084700011208ABAB3CAA3DA93EEF1203527F0150
:100857001208ABAB3CAA3DA93E900001EF1203641E
:10086700E4FF1208ABAB3FAA40A941EF120352AF16
:01087700443C
:01087800225D
:06065E008B3C8A3D893E41
:10066400E4F545F5447543807542C07549547548B1
:10067400E375472575463D754DA2754CE7754B3BB3
:10068400754AB675510A7550D7754F23754E3C752A
:1006940055AC7554C57553A77552381203FF8F595D
:1006A4008E588D578C56AB3FAA40A9411203FF8F39
:1006B4005D8E5C8D5B8C5A7F0A7ED77D237C3CAB40
:1006C4005DAA5CA95BA85A1200FBE4FBFA792078C6
:1006D400C212000A8F698E688D678C66AF59AE5856
:1006E400AD57AC56AB4DAA4CA94BA84A1200FBAB74
:1006F40059AA58A957A8561200FBC004C005C00641
:10070400C007AF59AE58AD57AC56AB49AA48A94734
:10071400A8461200FBD003D002D001D00012000A78
:10072400AB45AA44A943A84212000A8F618E608D8A
:100734005F8C5EAF59AE58AD57AC56AB55AA54A9B1
:1007440053A8521200FBAB51AA50A94FA84E120055
:100754000AC004C005C006C007E4FFFE7DC87CC112
:10076400AB69AA68A967A86612000AD003D002D0B0
:1007740001D0001200FBAB61AA60A95FA85E120061
:100784000A8F658E648D638C62E4FFFE7DC87C42B3
:10079400AB65AA64A963A862120201600D400BE470
:1007A400F565F5647563C87562427FCD7ECC7DCCFA
:1007B4007C3DAB65AA64A963A862120201500C7562
:1007C40065CD7564CC7563CC75623DAF69AE68ADBB
:1007D40067AC66AB3FAA40A94112041FAF65AE6483
:0D07E400AD63AC62AB3CAA3DA93E02041F10
:0D09BF00C2A0D2A100D2A200C2A2AF80222D
:10098A00C2A2A20092A0C2A100853C8000D2A2000D
:06099A00C2A2000209BF29
:0A09D800C200EF4408F53C02098A52
:0A09E200C200EF4404F53C02098A4C
:1008DC00C2A2C200753C3812098AC200753C38129B
:1008EC00098A7F041209D8C200753C0112098A7F5B
:0408FC00020209E209
:10092000AE07ED700AC200EE4480F53C12098ABDA4
:0F093000010CC200EE24C04480F53C12098A225B
:10097300120339FF6010D200F53C12098A74012971
:07098300F9E43AFA80EA22D0
:10090000D3EF9400EE6480948040147D7D7C00EDF4
:0F0910001D70011CED4C70F7EF1F70E41E80E1AD
:01091F0022B5
:100491001208DCE4FDFF1209207BFF7A09793F1283
:1004A10009730DE4FF1209207A09794C12097312BC
:1004B10009A0E4F52DF53F75400075412EF542FB8D
:1004C1007A0079291207F1EF252DF52D753F007579
:1004D100400075412E7542017B007A007925120793
:1004E100F1EF252DF52D60061209A0020654AC2569
:1004F100AD26E412027F8F288E278D268C25AC290C
:10050100AD2AE412027F8F2C8E2B8D2A8C29753F08
:10051100007540007541297B007A00792512065E3D
:10052100E4FFFE7D207C41AB2CAA2BA92AA829122D
:1005310000FB1202B88E218F22E4FFFE7D207C4158
:10054100AB28AA27A926A8251200FB1202B88E23E0
:100551008F24E4FD7F06120920AE21AF227C037DAA
:10056100E8120386EF2430F52FB43003752F20AE47
:1005710021AF227C037DE81203867E007F64CFCD0C
:10058100CFCECCCE120386EF2430F530B43009E55E
:100591002F64306003753020AE21AF227C007D6472
:1005A1001203867E007F0ACFCDCFCECCCE1203863A
:1005B100EF2430F53175322EAE21AF227C007D0A59
:1005C100120386ED2430F5337534DF7B007A007930
:1005D1002F1209737D017F06120920AE23AF247CFF
:1005E100037DE8120386EF2430F536B43003753607
:1005F10020AE23AF247C037DE81203867E007F6456
:10060100CFCDCFCECCCE120386EF2430F537B43028
:1006110009E53664306003753720AE23AF247C00D2
:100621007D641203867E007F0ACFCDCFCECCCE1261
:100631000386EF2430F53875392EAE23AF247C00C4
:100641007D0A120386ED2430F53A7B007A00793673
:0D0651001209737F207E031209000204B31A
:10000300020324E86480F8E933E83360110460F004
:10001300ED33EC337009E8FCE9FDEAFEEBFF220463
:1000230060DED3EB9FEA9EE99DE8C2E78CF0C2F75E
:1000330095F0400CE8CCF8E9CDF9EACEFAEBCFFB2A
:100043001202EF85D0F05804700320D5B3E8047092
:10005300075002B2D502032E92D5EC0460F7E4CC2C
:10006300C0E0C398F8603B94186008400DD0E0FBF3
:10007300020306E4FBFAC9FC8028E830E406E4C97D
:10008300FBE4CAFCE830E305E4C9CACBFCE8540747
:100093006010F8C3E913F9EA13FAEB13FBEC13FC52
:1000A300D8F130F52FC3E49CFCEF9BFFEE9AFEEDF5
:1000B30099FDD0E0FBEF4E4D4C701222DB0302039F
:1000C3002BEC2CFCEF33FFEE33FEED33FDED30E78D
:1000D300EB020306EF2BFFEE3AFEED39FDD0E0FB1A
:1000E30050130BBB000302032EED13FDEE13FEEFC3
:0800F30013FFEC13FC020306ED
:1000FB00EC4D6011E8497017ED33EC3304600DE4FF
:10010B00FCFFFEFD22E933E8330470F802032412EE
:10011B0002EF58046009E4CC2481500628500902F0
:10012B00032E28400302032BC0E0EB4A7044B98036
:10013B0006D0E0FB02031AEF4E701CBD8008EBFFEC
:10014B00EAFEE9FD80EBE98DF0A4FEE5F00201E4A7
:10015B00E9CDF9EAFEEBFFEF89F0A4FCE5F0CE89DF
:10016B00F0A42EFFE435F0CD89F0A42DFEE435F09C
:10017B008067EF4E7005BD80D780C3EF8BF0A4ACCA
:10018B00F0EE8BF0A42CFCE435F0F8EF8AF0A42C05
:10019B00E5F038FCE433CB8DF0A42CFCE5F03BF818
:1001AB00EE8AF0A42CFCE5F038F8E433CF89F0A408
:1001BB002CFCE5F038CF3400CE89F0A42FFFE5F00E
:1001CB003EFEE433C98DF0A42EFEE5F039CD8AF066
:1001DB00A42FFFE5F03EFEE43DFD33D0E0FB5007DE
:1001EB000BBB000F02032EEC2CFCEF33FFEE33FEA8
:0601FB00ED33FD020306D6
:1002010074F8CC6480CCC86480C8F58204604FC3A4
:10021100EB9FF5F0EA9E42F0E99D42F0E89C45F043
:10022100603C501DE5825FFFE582D313CB5BCBF4CD
:100231002B5582FB50280ABA002409B900200880F6
:100241001DE5825BFBE582D313CF5FCFF4C3132F90
:100251005582FF50090EBE00050DBD00010CC3EB18
:100261009FF5F0EA9E42F0E99D42F0E89C45F0607E
:0902710007CC4820E701B3EC22A0
:10027A0075F020800E75F010800575F0087D007EFF
:10028A00007F003392D530D5031203DBEC334010E4
:10029A00EF33FFEE33FEED33FDEC33FCD5F0ED2208
:0E02AA00E5F0247EA2D513CC92E7CDCEFF2244
:1002B800EDD2E7CD33EC3392D524814006E4FFFE3E
:1002C800FDFC22FCE4CFCECDCC24E0501174FF809D
:1002D800EDC3CC13CCCD13CDCE13CECF13CF04703A
:0702E800F030D5DE0203DB5C
:1002EF00E9D2E7C933E833F892D5EDD2E7CD33EC55
:0702FF0033FC5002B2D522CE
:10030600EC30E7100FBF000C0EBE00080DBD000458
:100316000BEB6014A2D5EB13FCED92E7FD2274FF04
:10032600FCFDFEFF22E480F8A2D574FF13FC7D805D
:03033600E480EF71
:10033900BB010689828A83E0225002E722BBFE02C2
:09034900E32289828A83E49322F5
:10035200BB010689828A83F0225002F722BBFE018A
:02036200F32284
:10036400F8BB010DE58229F582E5833AF583E8F0CF
:10037400225006E92582C8F622BBFE05E92582C87B
:02038400F22263
:10038600BC000BBE0029EF8DF084FFADF022E4CC5B
:10039600F875F008EF2FFFEE33FEEC33FCEE9DEC24
:1003A600984005FCEE9DFE0FD5F0E9E4CEFD22ED6A
:1003B600F8F5F0EE8420D21CFEADF075F008EF2FB4
:1003C600FFED33FD4007985006D5F0F222C398FDA5
:0503D6000FD5F0EA2242
:0E03DB00C3E49FFFE49EFEE49DFDE49CFC2233
:1003E900EB9FF5F0EA9E42F0E99D42F0EC6480C88B
:0603F90064809845F0222B
:1003FF00BB010789828A830204455005E9F802048C
:10040F0039BBFE05E9F802045189828A8302045D33
:10041F00BB010789828A830204795005E9F8020437
:0A042F006DBBFE05E9F8020485220A
:0C043900E6FC08E6FD08E6FE08E6FF22EF
:0C044500E0FCA3E0FDA3E0FEA3E0FF222A
:0C045100E2FC08E2FD08E2FE08E2FF22E7
:10045D00E493FC740193FD740293FE740393FF22E5
:0C046D00ECF608EDF608EEF608EFF622BB
:0C047900ECF0A3EDF0A3EEF0A3EFF022F6
:0C048500ECF208EDF208EEF208EFF222B3
:00000001FF
