:030000000209D121
:0C09D100787FE4F6D8FD758143020485B0
:1009AC005445005248005454542E54430052525251
:0409BC002E52250092
:1008FD001209447F3812095F1209447F0C12095FF7
:10090D001209447F0612095F1209447F0112095F23
:07091D007F647E000209481F
:10095F008F1A120944C2A0C2A1D2A2851A8012090D
:0A096F0044C2A27F0A7E000209487C
:100979008F1A120944D2A0C2A1D2A2851A801209E3
:0A09890044C2A27F0A7E0002094862
:06092400EF2430FB7F020E
:02092A008B162A
:10092C00EFBD01062480F517800424C0F517AF171E
:08093C0012095FAF16020979F0
:060895008B168A1789187A
:10089B00EFBD01062480F519800424C0F519AF19AA
:1008AB0012095FAB16AA17A91812032DFF601012BD
:0F08BB00097974012518F518E43517F51780E44D
:0108CA00220B
:040944007F0A7E00A8
:10094800D3EF9400EE9400400D000000000000EF8B
:060958001F70ED1E80EA95
:01095E002276
:10099300D2A7C2A600D2A600C2A700C2A60000002A
:0909A300D2A600D2A700C2A622D0
:1009C000D2A7C2A6E4FFD2A6C2A60FBF09F80209A9
:0109D0009393
:1008CB00E4FE7D80EDD394004017ED5F6004D2A76A
:1008DB008002C2A7D2A6000000C2A6EDC313FD8002
:1008EB00E3D2A7D2A6A2A7E433000000C2A6D2A7E8
:0108FB00FFFD
:0108FC0022D9
:10085B00E4FED2A77D80EDD394004013D2A630A73F
:10086B0003ED4206000000C2A6EDC313FD80E7BFF7
:10087B000104C2A78002D2A7000000D2A60000008C
:09088B00C2A6000000D2A7AF06CE
:010894002241
:0607D3008B168A1789183D
:1007D900E4F51DF51E120993E51C14600704701851
:1007E9007F0380027F051208CBEF3395E0FEEF25EA
:1007F9001EF51EEE351DF51D900000AF82AE83E497
:10080900FCFD7BFF7AFFF9F8D31203DD400630A720
:1008190003A380E730A708051EE51E7002051D7FAA
:100829000112085BAB16AA17A918EF1203467F013C
:1008390012085BAB16AA17A918900001EF1203580A
:10084900E4FF12085BAB19AA1AA91BEF120346AF02
:010859001E80
:01085A00227B
:060640008B168A178918D1
:10064600E4F51FF51E751D80751CC07523547522B3
:10065600E375212575203D7527A27526E775253B8F
:100666007524B6752B0A752AD775292375283C7506
:100676002FAC752EC5752DA7752C381203F38F3345
:100686008E328D318C30AB19AA1AA91B1203F38F47
:10069600378E368D358C347F0A7ED77D237C3CABF6
:1006A60037AA36A935A8341200FBE4FBFA7920787C
:1006B600C212000A8F438E428D418C40AF33AE3258
:1006C600AD31AC30AB27AA26A925A8241200FBAB76
:1006D60033AA32A931A8301200FBC004C005C006F7
:1006E600C007AF33AE32AD31AC30AB23AA22A9215D
:1006F600A8201200FBD003D002D001D00012000ABD
:10070600AB1FAA1EA91DA81C12000A8F3B8E3A8D8C
:10071600398C38AF33AE32AD31AC30AB2FAA2EA9FF
:100726002DA82C1200FBAB2BAA2AA929A828120057
:100736000AC004C005C006C007E4FFFE7DC87CC130
:10074600AB43AA42A941A84012000AD003D002D066
:1007560001D0001200FBAB3BAA3AA939A838120017
:100766000A8F3F8E3E8D3D8C3CE4FFFE7DC87C4269
:10077600AB3FAA3EA93DA83C120201600D400BE426
:10078600F53FF53E753DC8753C427FCD7ECC7DCCB0
:100796007C3DAB3FAA3EA93DA83C120201500C7518
:1007A6003FCD753ECC753DCC753C3DAF43AE42ADBD
:1007B60041AC40AB19AA1AA91B120413AF3FAE3EB7
:0D07C600AD3DAC3CAB16AA17A918020413F8
:100485001208FD1209C07BFF7A0979AC7D01E4FFF2
:100495001208957BFF7A0979AF7D02E4FF12089572
:1004A5007BFF7A0979B27D017F021208957BFF7A7D
:1004B5000979B97D027F021208957F207E4E1209C7
:1004C50048E4F510F519751A00751B11751C01FB2B
:1004D5007A0079081207D3EF2510F5107519007504
:1004E5001A00751B11E4F51CFB7A00790C1207D371
:1004F500EF2510F51060061209C0020636AC08ADEE
:1005050009E41202738F0B8E0A8D098C08AC0CADB1
:100515000DE41202738F0F8E0E8D0D8C0C75190064
:10052500751A00751B0C7B007A007908120640E4E9
:10053500FFFE7D207C41AB0FAA0EA90DA80C120071
:10054500FB1202AC8E128F137C037DE812037A7DB9
:1005550001120924AE12AF137C037DE812037A7EE3
:10056500007F64CFCDCFCECCCE12037AEF2430FB03
:100575007D017F0312092AAE12AF137C007D641240
:10058500037A7E007F0ACFCDCFCECCCE12037AEF91
:100595002430FB7D017F0412092AAE12AF137C00C3
:1005A5007D0A12037AED2430FB7D017F0612092AAC
:1005B500E4FFFE7D207C41AB0BAA0AA909A808121D
:1005C50000FB1202AC8E148F157C037DE812037AB2
:1005D5007D02120924AE14AF157C037DE812037A5F
:1005E5007E007F64CFCDCFCECCCE12037AEF243000
:1005F500FB7D027F0312092AAE14AF157C007D64D2
:1006050012037A7E007F0ACFCDCFCECCCE12037AED
:10061500EF2430FB7D027F0412092AAE14AF157C4E
:10062500007D0A12037AED2430FB7D027F06120954
:0B0635002A7F807E381209480204C6AC
:10000300020318E86480F8E933E83360110460F010
:10001300ED33EC337009E8FCE9FDEAFEEBFF220463
:1000230060DED3EB9FEA9EE99DE8C2E78CF0C2F75E
:1000330095F0400CE8CCF8E9CDF9EACEFAEBCFFB2A
:100043001202E385D0F05804700320D5B3E804709E
:10005300075002B2D502032292D5EC0460F7E4CC38
:10006300C0E0C398F8603B94186008400DD0E0FBF3
:100073000202FAE4FBFAC9FC8028E830E406E4C98A
:10008300FBE4CAFCE830E305E4C9CACBFCE8540747
:100093006010F8C3E913F9EA13FAEB13FBEC13FC52
:1000A300D8F130F52FC3E49CFCEF9BFFEE9AFEEDF5
:1000B30099FDD0E0FBEF4E4D4C701222DB0302039F
:1000C3001FEC2CFCEF33FFEE33FEED33FDED30E799
:1000D300EB0202FAEF2BFFEE3AFEED39FDD0E0FB27
:1000E30050130BBB0003020322ED13FDEE13FEEFCF
:0800F30013FFEC13FC0202FAFA
:1000FB00EC4D6011E8497017ED33EC3304600DE4FF
:10010B00FCFFFEFD22E933E8330470F802031812FA
:10011B0002E358046009E4CC2481500628500902FC
:10012B00032228400302031FC0E0EB4A7044B9804E
:10013B0006D0E0FB02030EEF4E701CBD8008EBFFF8
:10014B00EAFEE9FD80EBE98DF0A4FEE5F00201E4A7
:10015B00E9CDF9EAFEEBFFEF89F0A4FCE5F0CE89DF
:10016B00F0A42EFFE435F0CD89F0A42DFEE435F09C
:10017B008067EF4E7005BD80D780C3EF8BF0A4ACCA
:10018B00F0EE8BF0A42CFCE435F0F8EF8AF0A42C05
:10019B00E5F038FCE433CB8DF0A42CFCE5F03BF818
:1001AB00EE8AF0A42CFCE5F038F8E433CF89F0A408
:1001BB002CFCE5F038CF3400CE89F0A42FFFE5F00E
:1001CB003EFEE433C98DF0A42EFEE5F039CD8AF066
:1001DB00A42FFFE5F03EFEE43DFD33D0E0FB5007DE
:1001EB000BBB000F020322EC2CFCEF33FFEE33FEB4
:0601FB00ED33FD0202FAE3
:1002010074F8CC6480CCC86480C8F582046043C3B0
:10021100EB9FF5F0EA9E42F0E99D42F0E89C45F043
:1002210060305018E5825FFFE582F42B5582FB5068
:10023100210ABA001D09B90019088016E5825BFB85
:10024100E582F42F5582FF50090EBE00050DBD0059
:10025100010CC3EB9FF5F0EA9E42F0E99D42F0E804
:0D0261009C45F06007CC4820E701B3EC227B
:10026E0075F020800E75F010800575F0087D007E0B
:10027E00007F003392D530D5031203CFEC334010FC
:10028E00EF33FFEE33FEED33FDEC33FCD5F0ED2214
:0E029E00E5F0247EA2D513CC92E7CDCEFF2250
:1002AC00EDD2E7CD33EC3392D524814006E4FFFE4A
:1002BC00FDFC22FCE4CFCECDCC24E0501174FF80A9
:1002CC00EDC3CC13CCCD13CDCE13CECF13CF047046
:0702DC00F030D5DE0203CF74
:1002E300E9D2E7C933E833F892D5EDD2E7CD33EC61
:0702F30033FC5002B2D522DA
:1002FA00EC30E7100FBF000C0EBE00080DBD000465
:10030A000BEB6014A2D5EB13FCED92E7FD2274FF10
:10031A00FCFDFEFF22E480F8A2D574FF13FC7D8069
:03032A00E480EF7D
:10032D00BB010689828A83E0225002E722BBFE02CE
:09033D00E32289828A83E4932201
:10034600BB010689828A83F0225002F722BBFE0196
:02035600F32290
:10035800F8BB010DE58229F582E5833AF583E8F0DB
:10036800225006E92582C8F622BBFE05E92582C887
:02037800F2226F
:10037A00BC000BBE0029EF8DF084FFADF022E4CC67
:10038A00F875F008EF2FFFEE33FEEC33FCEE9DEC30
:10039A00984005FCEE9DFE0FD5F0E9E4CEFD22ED76
:1003AA00F8F5F0EE8420D21CFEADF075F008EF2FC0
:1003BA00FFED33FD4007985006D5F0F222C398FDB1
:0503CA000FD5F0EA224E
:0E03CF00C3E49FFFE49EFEE49DFDE49CFC223F
:1003DD00EB9FF5F0EA9E42F0E99D42F0EC6480C897
:0603ED0064809845F02237
:1003F300BB010789828A830204395005E9F80204A4
:100403002DBBFE05E9F802044589828A8302045163
:10041300BB010789828A8302046D5005E9F802044F
:0A04230061BBFE05E9F8020479222E
:0C042D00E6FC08E6FD08E6FE08E6FF22FB
:0C043900E0FCA3E0FDA3E0FEA3E0FF2236
:0C044500E2FC08E2FD08E2FE08E2FF22F3
:10045100E493FC740193FD740293FE740393FF22F1
:0C046100ECF608EDF608EEF608EFF622C7
:0C046D00ECF0A3EDF0A3EEF0A3EFF02202
:0C047900ECF208EDF208EEF208EFF222BF
:00000001FF
